{
  "contractName": "Token",
  "abi": [
    {
      "constant": true,
      "inputs": [],
      "name": "name",
      "outputs": [
        {
          "name": "",
          "type": "string"
        }
      ],
      "payable": false,
      "stateMutability": "view",
      "type": "function"
    },
    {
      "constant": false,
      "inputs": [
        {
          "name": "_spender",
          "type": "address"
        },
        {
          "name": "_value",
          "type": "uint256"
        }
      ],
      "name": "approve",
      "outputs": [
        {
          "name": "success",
          "type": "bool"
        }
      ],
      "payable": false,
      "stateMutability": "nonpayable",
      "type": "function"
    },
    {
      "constant": true,
      "inputs": [],
      "name": "totalSupply",
      "outputs": [
        {
          "name": "totalSupply",
          "type": "uint256"
        }
      ],
      "payable": false,
      "stateMutability": "view",
      "type": "function"
    },
    {
      "constant": false,
      "inputs": [
        {
          "name": "_from",
          "type": "address"
        },
        {
          "name": "_to",
          "type": "address"
        },
        {
          "name": "_value",
          "type": "uint256"
        }
      ],
      "name": "transferFrom",
      "outputs": [
        {
          "name": "success",
          "type": "bool"
        }
      ],
      "payable": false,
      "stateMutability": "nonpayable",
      "type": "function"
    },
    {
      "constant": true,
      "inputs": [],
      "name": "decimals",
      "outputs": [
        {
          "name": "",
          "type": "uint8"
        }
      ],
      "payable": false,
      "stateMutability": "view",
      "type": "function"
    },
    {
      "constant": true,
      "inputs": [],
      "name": "_totalSupply",
      "outputs": [
        {
          "name": "",
          "type": "uint256"
        }
      ],
      "payable": false,
      "stateMutability": "view",
      "type": "function"
    },
    {
      "constant": true,
      "inputs": [],
      "name": "RATE",
      "outputs": [
        {
          "name": "",
          "type": "uint256"
        }
      ],
      "payable": false,
      "stateMutability": "view",
      "type": "function"
    },
    {
      "constant": true,
      "inputs": [
        {
          "name": "_owner",
          "type": "address"
        }
      ],
      "name": "balanceOf",
      "outputs": [
        {
          "name": "balance",
          "type": "uint256"
        }
      ],
      "payable": false,
      "stateMutability": "view",
      "type": "function"
    },
    {
      "constant": true,
      "inputs": [],
      "name": "owner",
      "outputs": [
        {
          "name": "",
          "type": "address"
        }
      ],
      "payable": false,
      "stateMutability": "view",
      "type": "function"
    },
    {
      "constant": true,
      "inputs": [],
      "name": "symbol",
      "outputs": [
        {
          "name": "",
          "type": "string"
        }
      ],
      "payable": false,
      "stateMutability": "view",
      "type": "function"
    },
    {
      "constant": false,
      "inputs": [
        {
          "name": "_to",
          "type": "address"
        },
        {
          "name": "_value",
          "type": "uint256"
        }
      ],
      "name": "transfer",
      "outputs": [
        {
          "name": "success",
          "type": "bool"
        }
      ],
      "payable": false,
      "stateMutability": "nonpayable",
      "type": "function"
    },
    {
      "constant": false,
      "inputs": [],
      "name": "createTokens",
      "outputs": [],
      "payable": true,
      "stateMutability": "payable",
      "type": "function"
    },
    {
      "constant": true,
      "inputs": [
        {
          "name": "_owner",
          "type": "address"
        },
        {
          "name": "_spender",
          "type": "address"
        }
      ],
      "name": "allowance",
      "outputs": [
        {
          "name": "remaining",
          "type": "uint256"
        }
      ],
      "payable": false,
      "stateMutability": "view",
      "type": "function"
    },
    {
      "inputs": [],
      "payable": false,
      "stateMutability": "nonpayable",
      "type": "constructor"
    },
    {
      "payable": true,
      "stateMutability": "payable",
      "type": "fallback"
    },
    {
      "anonymous": false,
      "inputs": [
        {
          "indexed": true,
          "name": "_from",
          "type": "address"
        },
        {
          "indexed": true,
          "name": "_to",
          "type": "address"
        },
        {
          "indexed": false,
          "name": "_value",
          "type": "uint256"
        }
      ],
      "name": "Transfer",
      "type": "event"
    },
    {
      "anonymous": false,
      "inputs": [
        {
          "indexed": true,
          "name": "_owner",
          "type": "address"
        },
        {
          "indexed": true,
          "name": "_spender",
          "type": "address"
        },
        {
          "indexed": false,
          "name": "_value",
          "type": "uint256"
        }
      ],
      "name": "Approval",
      "type": "event"
    }
  ],
  "bytecode": "0x606060405260008055341561001357600080fd5b33600160006101000a81548173ffffffffffffffffffffffffffffffffffffffff021916908373ffffffffffffffffffffffffffffffffffffffff160217905550610ea2806100636000396000f3006060604052600436106100c5576000357c0100000000000000000000000000000000000000000000000000000000900463ffffffff16806306fdde03146100cf578063095ea7b31461015d57806318160ddd146101b757806323b872dd146101e0578063313ce567146102595780633eaaf86b14610288578063664e9704146102b157806370a08231146102da5780638da5cb5b1461032757806395d89b411461037c578063a9059cbb1461040a578063b442726314610464578063dd62ed3e1461046e575b6100cd6104da565b005b34156100da57600080fd5b6100e2610616565b6040518080602001828103825283818151815260200191508051906020019080838360005b83811015610122578082015181840152602081019050610107565b50505050905090810190601f16801561014f5780820380516001836020036101000a031916815260200191505b509250505060405180910390f35b341561016857600080fd5b61019d600480803573ffffffffffffffffffffffffffffffffffffffff1690602001909190803590602001909190505061064f565b604051808215151515815260200191505060405180910390f35b34156101c257600080fd5b6101ca610741565b6040518082815260200191505060405180910390f35b34156101eb57600080fd5b61023f600480803573ffffffffffffffffffffffffffffffffffffffff1690602001909190803573ffffffffffffffffffffffffffffffffffffffff1690602001909190803590602001909190505061074a565b604051808215151515815260200191505060405180910390f35b341561026457600080fd5b61026c610ad7565b604051808260ff1660ff16815260200191505060405180910390f35b341561029357600080fd5b61029b610adc565b6040518082815260200191505060405180910390f35b34156102bc57600080fd5b6102c4610ae2565b6040518082815260200191505060405180910390f35b34156102e557600080fd5b610311600480803573ffffffffffffffffffffffffffffffffffffffff16906020019091905050610ae8565b6040518082815260200191505060405180910390f35b341561033257600080fd5b61033a610b31565b604051808273ffffffffffffffffffffffffffffffffffffffff1673ffffffffffffffffffffffffffffffffffffffff16815260200191505060405180910390f35b341561038757600080fd5b61038f610b57565b6040518080602001828103825283818151815260200191508051906020019080838360005b838110156103cf5780820151818401526020810190506103b4565b50505050905090810190601f1680156103fc5780820380516001836020036101000a031916815260200191505b509250505060405180910390f35b341561041557600080fd5b61044a600480803573ffffffffffffffffffffffffffffffffffffffff16906020019091908035906020019091905050610b90565b604051808215151515815260200191505060405180910390f35b61046c6104da565b005b341561047957600080fd5b6104c4600480803573ffffffffffffffffffffffffffffffffffffffff1690602001909190803573ffffffffffffffffffffffffffffffffffffffff16906020019091905050610d85565b6040518082815260200191505060405180910390f35b600080341115156104ea57600080fd5b6104ff6101f434610e0c90919063ffffffff16565b905061055381600260003373ffffffffffffffffffffffffffffffffffffffff1673ffffffffffffffffffffffffffffffffffffffff16815260200190815260200160002054610e3f90919063ffffffff16565b600260003373ffffffffffffffffffffffffffffffffffffffff1673ffffffffffffffffffffffffffffffffffffffff168152602001908152602001600020819055506105ab81600054610e3f90919063ffffffff16565b600081905550600160009054906101000a900473ffffffffffffffffffffffffffffffffffffffff1673ffffffffffffffffffffffffffffffffffffffff166108fc349081150290604051600060405180830381858888f19350505050151561061357600080fd5b50565b6040805190810160405280601281526020017f416c6265727461205465737420546f6b656e000000000000000000000000000081525081565b600081600360003373ffffffffffffffffffffffffffffffffffffffff1673ffffffffffffffffffffffffffffffffffffffff16815260200190815260200160002060008573ffffffffffffffffffffffffffffffffffffffff1673ffffffffffffffffffffffffffffffffffffffff168152602001908152602001600020819055508273ffffffffffffffffffffffffffffffffffffffff163373ffffffffffffffffffffffffffffffffffffffff167f8c5be1e5ebec7d5bd14f71427d1e84f3dd0314c0f7b2291e5b200ac8c7c3b925846040518082815260200191505060405180910390a36001905092915050565b60008054905090565b600081600360008673ffffffffffffffffffffffffffffffffffffffff1673ffffffffffffffffffffffffffffffffffffffff16815260200190815260200160002060003373ffffffffffffffffffffffffffffffffffffffff1673ffffffffffffffffffffffffffffffffffffffff1681526020019081526020016000205410158015610817575081600260008673ffffffffffffffffffffffffffffffffffffffff1673ffffffffffffffffffffffffffffffffffffffff1681526020019081526020016000205410155b80156108235750600082115b151561082e57600080fd5b61088082600260008773ffffffffffffffffffffffffffffffffffffffff1673ffffffffffffffffffffffffffffffffffffffff16815260200190815260200160002054610e5d90919063ffffffff16565b600260008673ffffffffffffffffffffffffffffffffffffffff1673ffffffffffffffffffffffffffffffffffffffff1681526020019081526020016000208190555061091582600260008673ffffffffffffffffffffffffffffffffffffffff1673ffffffffffffffffffffffffffffffffffffffff16815260200190815260200160002054610e3f90919063ffffffff16565b600260008573ffffffffffffffffffffffffffffffffffffffff1673ffffffffffffffffffffffffffffffffffffffff168152602001908152602001600020819055506109e782600360008773ffffffffffffffffffffffffffffffffffffffff1673ffffffffffffffffffffffffffffffffffffffff16815260200190815260200160002060003373ffffffffffffffffffffffffffffffffffffffff1673ffffffffffffffffffffffffffffffffffffffff16815260200190815260200160002054610e5d90919063ffffffff16565b600360008673ffffffffffffffffffffffffffffffffffffffff1673ffffffffffffffffffffffffffffffffffffffff16815260200190815260200160002060003373ffffffffffffffffffffffffffffffffffffffff1673ffffffffffffffffffffffffffffffffffffffff168152602001908152602001600020819055508273ffffffffffffffffffffffffffffffffffffffff168473ffffffffffffffffffffffffffffffffffffffff167fddf252ad1be2c89b69c2b068fc378daa952ba7f163c4a11628f55a4df523b3ef846040518082815260200191505060405180910390a3600190509392505050565b601281565b60005481565b6101f481565b6000600260008373ffffffffffffffffffffffffffffffffffffffff1673ffffffffffffffffffffffffffffffffffffffff168152602001908152602001600020549050919050565b600160009054906101000a900473ffffffffffffffffffffffffffffffffffffffff1681565b6040805190810160405280600781526020017f414c42544553540000000000000000000000000000000000000000000000000081525081565b600081600260003373ffffffffffffffffffffffffffffffffffffffff1673ffffffffffffffffffffffffffffffffffffffff1681526020019081526020016000205410158015610be15750600082115b1515610bec57600080fd5b610c3e82600260003373ffffffffffffffffffffffffffffffffffffffff1673ffffffffffffffffffffffffffffffffffffffff16815260200190815260200160002054610e5d90919063ffffffff16565b600260003373ffffffffffffffffffffffffffffffffffffffff1673ffffffffffffffffffffffffffffffffffffffff16815260200190815260200160002081905550610cd382600260008673ffffffffffffffffffffffffffffffffffffffff1673ffffffffffffffffffffffffffffffffffffffff16815260200190815260200160002054610e3f90919063ffffffff16565b600260008573ffffffffffffffffffffffffffffffffffffffff1673ffffffffffffffffffffffffffffffffffffffff168152602001908152602001600020819055508273ffffffffffffffffffffffffffffffffffffffff163373ffffffffffffffffffffffffffffffffffffffff167fddf252ad1be2c89b69c2b068fc378daa952ba7f163c4a11628f55a4df523b3ef846040518082815260200191505060405180910390a36001905092915050565b6000600360008473ffffffffffffffffffffffffffffffffffffffff1673ffffffffffffffffffffffffffffffffffffffff16815260200190815260200160002060008373ffffffffffffffffffffffffffffffffffffffff1673ffffffffffffffffffffffffffffffffffffffff16815260200190815260200160002054905092915050565b60008082840290506000841480610e2d5750828482811515610e2a57fe5b04145b1515610e3557fe5b8091505092915050565b6000808284019050838110151515610e5357fe5b8091505092915050565b6000828211151515610e6b57fe5b8183039050929150505600a165627a7a723058207553ffd0bb97eca5d5aac50ef23d6c884e53b8fe873796ce668673ed5d317acb0029",
  "source": "pragma solidity ^0.4.11;\n\nimport './IERC20.sol';\nimport './SafeMath.sol';\n\ncontract Token is IERC20 {\n\n    //Saves the uint256 data from Overflow (above the scope) and Underflow (negative number) Attacks\n    using SafeMath for uint256;\n\n    uint public _totalSupply = 0;\n\n    string public constant symbol = \"ALBTEST\";\n    string public constant name = \"Alberta Test Token\";\n    //How the tokens can be broken, denominated, in wallet 1000 ALBTEST will be showed 1.000\n    uint8 public constant decimals = 18;\n\n    // 1 ether = 500 ALBTEST\n    uint256 public constant RATE = 500;\n\n    address public owner;\n\n    //Mapping - how much balance each account has\n    mapping(address => uint256) balances;\n    //Mapping - how much tokens is someone allowed to sell to someone else\n    mapping(address => mapping(address => uint256)) allowed;\n\n    //Fallback function, noname, for example when people send money directly to the contract address\n    function () payable {\n        createTokens();\n    }\n\n    //Constructor function, setting the contract creator as owner\n    function Token() {\n        owner = msg.sender;\n    }\n\n    //Creates tokens, payable - accepts ether\n    function createTokens() payable {\n        //Checks if the amount of ether sent is > 0\n        require(msg.value > 0);\n\n        //Creates Tokens\n        uint256 tokens = msg.value.mul(RATE);\n        //Adds tokens to the balance of the contract creator\n        balances[msg.sender] = balances[msg.sender].add(tokens);\n        //Adds number of created tokens to the total supply\n        _totalSupply = _totalSupply.add(tokens);\n\n        //Transfers the ether sent to the contract to the owner of the contract\n        owner.transfer(msg.value);\n    }\n\n    //Tokens supply\n    function totalSupply() constant returns (uint totalSupply) {\n        //Returns the total number of tokens in circulation\n        return _totalSupply;\n    }\n\n    //Balance of the account\n    function balanceOf(address _owner) constant returns (uint balance) {\n        //Returns the balance of the address\n        return balances[_owner];\n    }\n\n    //Tokens selling by the issuer\n    function transfer(address _to, uint _value) returns (bool success) {\n        //Like the 'if' statement\n        require(\n            //Checks if the balance on the issuer account is greater than the value sent\n            balances[msg.sender] >= _value\n            //Checks if the amount sent is greater than 0\n            && _value > 0\n        );\n        //Decreases balance of the tokens issuer by the value sent\n        balances[msg.sender] = balances[msg.sender].sub(_value);\n        //Increases balance of the tokens buyer by the value received\n        balances[_to] = balances[_to].add(_value);\n        //Transfer event\n        Transfer(msg.sender, _to, _value);\n        //On success\n        return true;\n    }\n    //Tokens reselling\n    function transferFrom(address _from, address _to, uint _value) returns (bool success) {\n        require(\n            //Checks if amount allowed by the contract owner to send by sender is greater than value sent\n            allowed[_from][msg.sender] >= _value\n            //Checks if the balance on the seller account is greater than the value sent\n            && balances[_from] >= _value\n            //Checks if the amount sent is greater than 0\n            && _value > 0\n        );\n        //Decreases balance of the seller by the value sent\n        balances[_from] = balances[_from].sub(_value);\n        //Increases balance of the buyer by the value sent\n        balances[_to] = balances[_to].add(_value);\n        //Decreases the nr of tokens seller is allowed to sell to someone else\n        allowed[_from][msg.sender] = allowed[_from][msg.sender].sub(_value);\n        Transfer(_from, _to, _value);\n        return true;\n    }\n\n    //Tokens receiving\n    function approve(address _spender, uint _value) returns (bool success) {\n        //Allows the buyer get the sent amount of tokens\n        allowed[msg.sender][_spender] = _value;\n        //Approval of tokens by buyer and contract owner\n        Approval(msg.sender, _spender, _value);\n        return true;\n    }\n    //Tokens selling limit\n    function allowance(address _owner, address _spender) constant returns (uint remaining) {\n        //Returns how much tokens seller is allowed to sell\n        return allowed[_owner][_spender];\n    }\n\n    event Transfer(address indexed _from, address indexed _to, uint256 _value);\n    event Approval(address indexed _owner, address indexed _spender, uint256 _value);\n}\n",
  "sourcePath": "/Users/dominikazaleska/Desktop/contract web3.js trial/contract-web3js-trial/contracts/Token.sol",
  "compiler": {
    "name": "solc",
    "version": "0.4.18+commit.9cf6e910.Emscripten.clang"
  },
  "schemaVersion": "1.0.1",
  "updatedAt": "2018-01-23T13:15:22.029Z"
}